{"contracts/timer.sol":{"Timer":{"abi":[{"inputs":[],"name":"cycleTime","outputs":[],"stateMutability":"nonpayable","type":"function"},{"inputs":[],"name":"skipTime","outputs":[],"stateMutability":"nonpayable","type":"function"},{"inputs":[],"name":"viewTime","outputs":[{"internalType":"uint256","name":"","type":"uint256"},{"internalType":"uint256","name":"","type":"uint256"},{"internalType":"uint256","name":"","type":"uint256"},{"internalType":"uint256","name":"","type":"uint256"},{"internalType":"uint256","name":"","type":"uint256"}],"stateMutability":"view","type":"function"}],"evm":{"bytecode":{"linkReferences":{},"object":"6080604052426000556000546001556000546002556000600355603c60005460025461002b9190610083565b61003591906100e6565b60045534801561004457600080fd5b50610117565b6000819050919050565b7f4e487b7100000000000000000000000000000000000000000000000000000000600052601160045260246000fd5b600061008e8261004a565b91506100998361004a565b92508282039050818111156100b1576100b0610054565b5b92915050565b7f4e487b7100000000000000000000000000000000000000000000000000000000600052601260045260246000fd5b60006100f18261004a565b91506100fc8361004a565b92508261010c5761010b6100b7565b5b828204905092915050565b6102a6806101266000396000f3fe608060405234801561001057600080fd5b50600436106100415760003560e01c80631733ffe514610046578063b11cd64a14610050578063d708e2c114610072575b600080fd5b61004e61007c565b005b6100586100b1565b604051610069959493929190610126565b60405180910390f35b61007a6100d8565b005b603c60035461008b91906101a8565b6003819055506003546001546100a191906101a8565b6002819055506100af6100e9565b565b60008060008060008054600154600254600354600454945094509450945094509091929394565b426001819055506100e76100e9565b565b603c6000546002546100fb91906101dc565b610105919061023f565b600481905550565b6000819050919050565b6101208161010d565b82525050565b600060a08201905061013b6000830188610117565b6101486020830187610117565b6101556040830186610117565b6101626060830185610117565b61016f6080830184610117565b9695505050505050565b7f4e487b7100000000000000000000000000000000000000000000000000000000600052601160045260246000fd5b60006101b38261010d565b91506101be8361010d565b92508282019050808211156101d6576101d5610179565b5b92915050565b60006101e78261010d565b91506101f28361010d565b925082820390508181111561020a57610209610179565b5b92915050565b7f4e487b7100000000000000000000000000000000000000000000000000000000600052601260045260246000fd5b600061024a8261010d565b91506102558361010d565b92508261026557610264610210565b5b82820490509291505056fea2646970667358221220a4b7c4b061710631912d5c08ca5b2ebed991dab23feffbcc9b1b8ba4be4d5dde64736f6c63430008170033","opcodes":"PUSH1 0x80 PUSH1 0x40 MSTORE TIMESTAMP PUSH1 0x0 SSTORE PUSH1 0x0 SLOAD PUSH1 0x1 SSTORE PUSH1 0x0 SLOAD PUSH1 0x2 SSTORE PUSH1 0x0 PUSH1 0x3 SSTORE PUSH1 0x3C PUSH1 0x0 SLOAD PUSH1 0x2 SLOAD PUSH2 0x2B SWAP2 SWAP1 PUSH2 0x83 JUMP JUMPDEST PUSH2 0x35 SWAP2 SWAP1 PUSH2 0xE6 JUMP JUMPDEST PUSH1 0x4 SSTORE CALLVALUE DUP1 ISZERO PUSH2 0x44 JUMPI PUSH1 0x0 DUP1 REVERT JUMPDEST POP PUSH2 0x117 JUMP JUMPDEST PUSH1 0x0 DUP2 SWAP1 POP SWAP2 SWAP1 POP JUMP JUMPDEST PUSH32 0x4E487B7100000000000000000000000000000000000000000000000000000000 PUSH1 0x0 MSTORE PUSH1 0x11 PUSH1 0x4 MSTORE PUSH1 0x24 PUSH1 0x0 REVERT JUMPDEST PUSH1 0x0 PUSH2 0x8E DUP3 PUSH2 0x4A JUMP JUMPDEST SWAP2 POP PUSH2 0x99 DUP4 PUSH2 0x4A JUMP JUMPDEST SWAP3 POP DUP3 DUP3 SUB SWAP1 POP DUP2 DUP2 GT ISZERO PUSH2 0xB1 JUMPI PUSH2 0xB0 PUSH2 0x54 JUMP JUMPDEST JUMPDEST SWAP3 SWAP2 POP POP JUMP JUMPDEST PUSH32 0x4E487B7100000000000000000000000000000000000000000000000000000000 PUSH1 0x0 MSTORE PUSH1 0x12 PUSH1 0x4 MSTORE PUSH1 0x24 PUSH1 0x0 REVERT JUMPDEST PUSH1 0x0 PUSH2 0xF1 DUP3 PUSH2 0x4A JUMP JUMPDEST SWAP2 POP PUSH2 0xFC DUP4 PUSH2 0x4A JUMP JUMPDEST SWAP3 POP DUP3 PUSH2 0x10C JUMPI PUSH2 0x10B PUSH2 0xB7 JUMP JUMPDEST JUMPDEST DUP3 DUP3 DIV SWAP1 POP SWAP3 SWAP2 POP POP JUMP JUMPDEST PUSH2 0x2A6 DUP1 PUSH2 0x126 PUSH1 0x0 CODECOPY PUSH1 0x0 RETURN INVALID PUSH1 0x80 PUSH1 0x40 MSTORE CALLVALUE DUP1 ISZERO PUSH2 0x10 JUMPI PUSH1 0x0 DUP1 REVERT JUMPDEST POP PUSH1 0x4 CALLDATASIZE LT PUSH2 0x41 JUMPI PUSH1 0x0 CALLDATALOAD PUSH1 0xE0 SHR DUP1 PUSH4 0x1733FFE5 EQ PUSH2 0x46 JUMPI DUP1 PUSH4 0xB11CD64A EQ PUSH2 0x50 JUMPI DUP1 PUSH4 0xD708E2C1 EQ PUSH2 0x72 JUMPI JUMPDEST PUSH1 0x0 DUP1 REVERT JUMPDEST PUSH2 0x4E PUSH2 0x7C JUMP JUMPDEST STOP JUMPDEST PUSH2 0x58 PUSH2 0xB1 JUMP JUMPDEST PUSH1 0x40 MLOAD PUSH2 0x69 SWAP6 SWAP5 SWAP4 SWAP3 SWAP2 SWAP1 PUSH2 0x126 JUMP JUMPDEST PUSH1 0x40 MLOAD DUP1 SWAP2 SUB SWAP1 RETURN JUMPDEST PUSH2 0x7A PUSH2 0xD8 JUMP JUMPDEST STOP JUMPDEST PUSH1 0x3C PUSH1 0x3 SLOAD PUSH2 0x8B SWAP2 SWAP1 PUSH2 0x1A8 JUMP JUMPDEST PUSH1 0x3 DUP2 SWAP1 SSTORE POP PUSH1 0x3 SLOAD PUSH1 0x1 SLOAD PUSH2 0xA1 SWAP2 SWAP1 PUSH2 0x1A8 JUMP JUMPDEST PUSH1 0x2 DUP2 SWAP1 SSTORE POP PUSH2 0xAF PUSH2 0xE9 JUMP JUMPDEST JUMP JUMPDEST PUSH1 0x0 DUP1 PUSH1 0x0 DUP1 PUSH1 0x0 DUP1 SLOAD PUSH1 0x1 SLOAD PUSH1 0x2 SLOAD PUSH1 0x3 SLOAD PUSH1 0x4 SLOAD SWAP5 POP SWAP5 POP SWAP5 POP SWAP5 POP SWAP5 POP SWAP1 SWAP2 SWAP3 SWAP4 SWAP5 JUMP JUMPDEST TIMESTAMP PUSH1 0x1 DUP2 SWAP1 SSTORE POP PUSH2 0xE7 PUSH2 0xE9 JUMP JUMPDEST JUMP JUMPDEST PUSH1 0x3C PUSH1 0x0 SLOAD PUSH1 0x2 SLOAD PUSH2 0xFB SWAP2 SWAP1 PUSH2 0x1DC JUMP JUMPDEST PUSH2 0x105 SWAP2 SWAP1 PUSH2 0x23F JUMP JUMPDEST PUSH1 0x4 DUP2 SWAP1 SSTORE POP JUMP JUMPDEST PUSH1 0x0 DUP2 SWAP1 POP SWAP2 SWAP1 POP JUMP JUMPDEST PUSH2 0x120 DUP2 PUSH2 0x10D JUMP JUMPDEST DUP3 MSTORE POP POP JUMP JUMPDEST PUSH1 0x0 PUSH1 0xA0 DUP3 ADD SWAP1 POP PUSH2 0x13B PUSH1 0x0 DUP4 ADD DUP9 PUSH2 0x117 JUMP JUMPDEST PUSH2 0x148 PUSH1 0x20 DUP4 ADD DUP8 PUSH2 0x117 JUMP JUMPDEST PUSH2 0x155 PUSH1 0x40 DUP4 ADD DUP7 PUSH2 0x117 JUMP JUMPDEST PUSH2 0x162 PUSH1 0x60 DUP4 ADD DUP6 PUSH2 0x117 JUMP JUMPDEST PUSH2 0x16F PUSH1 0x80 DUP4 ADD DUP5 PUSH2 0x117 JUMP JUMPDEST SWAP7 SWAP6 POP POP POP POP POP POP JUMP JUMPDEST PUSH32 0x4E487B7100000000000000000000000000000000000000000000000000000000 PUSH1 0x0 MSTORE PUSH1 0x11 PUSH1 0x4 MSTORE PUSH1 0x24 PUSH1 0x0 REVERT JUMPDEST PUSH1 0x0 PUSH2 0x1B3 DUP3 PUSH2 0x10D JUMP JUMPDEST SWAP2 POP PUSH2 0x1BE DUP4 PUSH2 0x10D JUMP JUMPDEST SWAP3 POP DUP3 DUP3 ADD SWAP1 POP DUP1 DUP3 GT ISZERO PUSH2 0x1D6 JUMPI PUSH2 0x1D5 PUSH2 0x179 JUMP JUMPDEST JUMPDEST SWAP3 SWAP2 POP POP JUMP JUMPDEST PUSH1 0x0 PUSH2 0x1E7 DUP3 PUSH2 0x10D JUMP JUMPDEST SWAP2 POP PUSH2 0x1F2 DUP4 PUSH2 0x10D JUMP JUMPDEST SWAP3 POP DUP3 DUP3 SUB SWAP1 POP DUP2 DUP2 GT ISZERO PUSH2 0x20A JUMPI PUSH2 0x209 PUSH2 0x179 JUMP JUMPDEST JUMPDEST SWAP3 SWAP2 POP POP JUMP JUMPDEST PUSH32 0x4E487B7100000000000000000000000000000000000000000000000000000000 PUSH1 0x0 MSTORE PUSH1 0x12 PUSH1 0x4 MSTORE PUSH1 0x24 PUSH1 0x0 REVERT JUMPDEST PUSH1 0x0 PUSH2 0x24A DUP3 PUSH2 0x10D JUMP JUMPDEST SWAP2 POP PUSH2 0x255 DUP4 PUSH2 0x10D JUMP JUMPDEST SWAP3 POP DUP3 PUSH2 0x265 JUMPI PUSH2 0x264 PUSH2 0x210 JUMP JUMPDEST JUMPDEST DUP3 DUP3 DIV SWAP1 POP SWAP3 SWAP2 POP POP JUMP INVALID LOG2 PUSH5 0x6970667358 0x22 SLT KECCAK256 LOG4 0xB7 0xC4 0xB0 PUSH2 0x7106 BALANCE SWAP2 0x2D 0x5C ADDMOD 0xCA JUMPDEST 0x2E 0xBE 0xD9 SWAP2 0xDA 0xB2 EXTCODEHASH 0xEF 0xFB 0xCC SWAP12 SHL DUP12 LOG4 0xBE 0x4D 0x5D 0xDE PUSH5 0x736F6C6343 STOP ADDMOD OR STOP CALLER "},"methodIdentifiers":{"cycleTime()":"d708e2c1","skipTime()":"1733ffe5","viewTime()":"b11cd64a"}}}}}