{
  "_format": "hh-sol-artifact-1",
  "contractName": "Timer",
  "sourceName": "contracts/timer.sol",
  "abi": [
    {
      "inputs": [],
      "name": "cycleTime",
      "outputs": [],
      "stateMutability": "nonpayable",
      "type": "function"
    },
    {
      "inputs": [],
      "name": "skipTime",
      "outputs": [],
      "stateMutability": "nonpayable",
      "type": "function"
    },
    {
      "inputs": [],
      "name": "viewTime",
      "outputs": [
        {
          "internalType": "uint256",
          "name": "",
          "type": "uint256"
        },
        {
          "internalType": "uint256",
          "name": "",
          "type": "uint256"
        },
        {
          "internalType": "uint256",
          "name": "",
          "type": "uint256"
        },
        {
          "internalType": "uint256",
          "name": "",
          "type": "uint256"
        },
        {
          "internalType": "uint256",
          "name": "",
          "type": "uint256"
        }
      ],
      "stateMutability": "view",
      "type": "function"
    }
  ],
  "bytecode": "0x6080604052426000556000546001556000546002556000600355603c60005460025461002b9190610083565b61003591906100e6565b60045534801561004457600080fd5b50610117565b6000819050919050565b7f4e487b7100000000000000000000000000000000000000000000000000000000600052601160045260246000fd5b600061008e8261004a565b91506100998361004a565b92508282039050818111156100b1576100b0610054565b5b92915050565b7f4e487b7100000000000000000000000000000000000000000000000000000000600052601260045260246000fd5b60006100f18261004a565b91506100fc8361004a565b92508261010c5761010b6100b7565b5b828204905092915050565b6102a6806101266000396000f3fe608060405234801561001057600080fd5b50600436106100415760003560e01c80631733ffe514610046578063b11cd64a14610050578063d708e2c114610072575b600080fd5b61004e61007c565b005b6100586100b1565b604051610069959493929190610126565b60405180910390f35b61007a6100d8565b005b603c60035461008b91906101a8565b6003819055506003546001546100a191906101a8565b6002819055506100af6100e9565b565b60008060008060008054600154600254600354600454945094509450945094509091929394565b426001819055506100e76100e9565b565b603c6000546002546100fb91906101dc565b610105919061023f565b600481905550565b6000819050919050565b6101208161010d565b82525050565b600060a08201905061013b6000830188610117565b6101486020830187610117565b6101556040830186610117565b6101626060830185610117565b61016f6080830184610117565b9695505050505050565b7f4e487b7100000000000000000000000000000000000000000000000000000000600052601160045260246000fd5b60006101b38261010d565b91506101be8361010d565b92508282019050808211156101d6576101d5610179565b5b92915050565b60006101e78261010d565b91506101f28361010d565b925082820390508181111561020a57610209610179565b5b92915050565b7f4e487b7100000000000000000000000000000000000000000000000000000000600052601260045260246000fd5b600061024a8261010d565b91506102558361010d565b92508261026557610264610210565b5b82820490509291505056fea2646970667358221220a4b7c4b061710631912d5c08ca5b2ebed991dab23feffbcc9b1b8ba4be4d5dde64736f6c63430008170033",
  "linkReferences": {},
  "deployedLinkReferences": {}
}