{
  "_format": "hh-sol-artifact-1",
  "contractName": "CMON",
  "sourceName": "contracts/CMON.sol",
  "abi": [
    {
      "inputs": [],
      "stateMutability": "nonpayable",
      "type": "constructor"
    },
    {
      "inputs": [
        {
          "internalType": "address",
          "name": "spender",
          "type": "address"
        },
        {
          "internalType": "uint256",
          "name": "allowance",
          "type": "uint256"
        },
        {
          "internalType": "uint256",
          "name": "needed",
          "type": "uint256"
        }
      ],
      "name": "ERC20InsufficientAllowance",
      "type": "error"
    },
    {
      "inputs": [
        {
          "internalType": "address",
          "name": "sender",
          "type": "address"
        },
        {
          "internalType": "uint256",
          "name": "balance",
          "type": "uint256"
        },
        {
          "internalType": "uint256",
          "name": "needed",
          "type": "uint256"
        }
      ],
      "name": "ERC20InsufficientBalance",
      "type": "error"
    },
    {
      "inputs": [
        {
          "internalType": "address",
          "name": "approver",
          "type": "address"
        }
      ],
      "name": "ERC20InvalidApprover",
      "type": "error"
    },
    {
      "inputs": [
        {
          "internalType": "address",
          "name": "receiver",
          "type": "address"
        }
      ],
      "name": "ERC20InvalidReceiver",
      "type": "error"
    },
    {
      "inputs": [
        {
          "internalType": "address",
          "name": "sender",
          "type": "address"
        }
      ],
      "name": "ERC20InvalidSender",
      "type": "error"
    },
    {
      "inputs": [
        {
          "internalType": "address",
          "name": "spender",
          "type": "address"
        }
      ],
      "name": "ERC20InvalidSpender",
      "type": "error"
    },
    {
      "anonymous": false,
      "inputs": [
        {
          "indexed": true,
          "internalType": "address",
          "name": "owner",
          "type": "address"
        },
        {
          "indexed": true,
          "internalType": "address",
          "name": "spender",
          "type": "address"
        },
        {
          "indexed": false,
          "internalType": "uint256",
          "name": "value",
          "type": "uint256"
        }
      ],
      "name": "Approval",
      "type": "event"
    },
    {
      "anonymous": false,
      "inputs": [
        {
          "indexed": true,
          "internalType": "address",
          "name": "from",
          "type": "address"
        },
        {
          "indexed": true,
          "internalType": "address",
          "name": "to",
          "type": "address"
        },
        {
          "indexed": false,
          "internalType": "uint256",
          "name": "value",
          "type": "uint256"
        }
      ],
      "name": "Transfer",
      "type": "event"
    },
    {
      "inputs": [],
      "name": "_decimals",
      "outputs": [
        {
          "internalType": "uint8",
          "name": "",
          "type": "uint8"
        }
      ],
      "stateMutability": "view",
      "type": "function"
    },
    {
      "inputs": [],
      "name": "_totalSupply",
      "outputs": [
        {
          "internalType": "uint256",
          "name": "",
          "type": "uint256"
        }
      ],
      "stateMutability": "view",
      "type": "function"
    },
    {
      "inputs": [
        {
          "internalType": "address",
          "name": "owner",
          "type": "address"
        },
        {
          "internalType": "address",
          "name": "spender",
          "type": "address"
        }
      ],
      "name": "allowance",
      "outputs": [
        {
          "internalType": "uint256",
          "name": "",
          "type": "uint256"
        }
      ],
      "stateMutability": "view",
      "type": "function"
    },
    {
      "inputs": [
        {
          "internalType": "address",
          "name": "spender",
          "type": "address"
        },
        {
          "internalType": "uint256",
          "name": "value",
          "type": "uint256"
        }
      ],
      "name": "approve",
      "outputs": [
        {
          "internalType": "bool",
          "name": "",
          "type": "bool"
        }
      ],
      "stateMutability": "nonpayable",
      "type": "function"
    },
    {
      "inputs": [],
      "name": "autoth",
      "outputs": [
        {
          "internalType": "string",
          "name": "name",
          "type": "string"
        },
        {
          "internalType": "string",
          "name": "password",
          "type": "string"
        },
        {
          "internalType": "uint256",
          "name": "timeForReg",
          "type": "uint256"
        },
        {
          "internalType": "uint256",
          "name": "balance",
          "type": "uint256"
        }
      ],
      "stateMutability": "view",
      "type": "function"
    },
    {
      "inputs": [
        {
          "internalType": "address",
          "name": "account",
          "type": "address"
        }
      ],
      "name": "balanceOf",
      "outputs": [
        {
          "internalType": "uint256",
          "name": "",
          "type": "uint256"
        }
      ],
      "stateMutability": "view",
      "type": "function"
    },
    {
      "inputs": [],
      "name": "decimals",
      "outputs": [
        {
          "internalType": "uint8",
          "name": "",
          "type": "uint8"
        }
      ],
      "stateMutability": "view",
      "type": "function"
    },
    {
      "inputs": [],
      "name": "name",
      "outputs": [
        {
          "internalType": "string",
          "name": "",
          "type": "string"
        }
      ],
      "stateMutability": "view",
      "type": "function"
    },
    {
      "inputs": [],
      "name": "symbol",
      "outputs": [
        {
          "internalType": "string",
          "name": "",
          "type": "string"
        }
      ],
      "stateMutability": "view",
      "type": "function"
    },
    {
      "inputs": [],
      "name": "totalSupply",
      "outputs": [
        {
          "internalType": "uint256",
          "name": "",
          "type": "uint256"
        }
      ],
      "stateMutability": "view",
      "type": "function"
    },
    {
      "inputs": [
        {
          "internalType": "address",
          "name": "to",
          "type": "address"
        },
        {
          "internalType": "uint256",
          "name": "value",
          "type": "uint256"
        }
      ],
      "name": "transfer",
      "outputs": [
        {
          "internalType": "bool",
          "name": "",
          "type": "bool"
        }
      ],
      "stateMutability": "nonpayable",
      "type": "function"
    },
    {
      "inputs": [
        {
          "internalType": "address",
          "name": "from",
          "type": "address"
        },
        {
          "internalType": "address",
          "name": "to",
          "type": "address"
        },
        {
          "internalType": "uint256",
          "name": "value",
          "type": "uint256"
        }
      ],
      "name": "transferFrom",
      "outputs": [
        {
          "internalType": "bool",
          "name": "",
          "type": "bool"
        }
      ],
      "stateMutability": "nonpayable",
      "type": "function"
    }
  ],
  "bytecode": "0x60806040526040518060400160405280600d81526020017f43727970746f4d6f6e7374657200000000000000000000000000000000000000815250600590816200004a919062000ba4565b506040518060400160405280600481526020017f434d4f4e000000000000000000000000000000000000000000000000000000008152506006908162000091919062000ba4565b50670de0b6b3a7640000600755600c600860006101000a81548160ff021916908360ff160217905550735b38da6a701c568545dcfcb03fcb875f56beddc4600d60006101000a81548173ffffffffffffffffffffffffffffffffffffffff021916908373ffffffffffffffffffffffffffffffffffffffff16021790555073ab8483f64d9c6d1ecf9b849ae677dd3315835cb2600e60006101000a81548173ffffffffffffffffffffffffffffffffffffffff021916908373ffffffffffffffffffffffffffffffffffffffff160217905550734b20993bc481177ec7e8f571cecae8a9e22c02db600f60006101000a81548173ffffffffffffffffffffffffffffffffffffffff021916908373ffffffffffffffffffffffffffffffffffffffff1602179055507378731d3ca6b7e34ac0f824c42a7cc18a495cabab601060006101000a81548173ffffffffffffffffffffffffffffffffffffffff021916908373ffffffffffffffffffffffffffffffffffffffff16021790555073617f2e2fd72fd9d5503197092ac168c91465e7f2601160006101000a81548173ffffffffffffffffffffffffffffffffffffffff021916908373ffffffffffffffffffffffffffffffffffffffff1602179055507317f6ad8ef982297579c203069c1dbffe4348c372601260006101000a81548173ffffffffffffffffffffffffffffffffffffffff021916908373ffffffffffffffffffffffffffffffffffffffff160217905550348015620002c557600080fd5b5060058054620002d59062000993565b80601f0160208091040260200160405190810160405280929190818152602001828054620003039062000993565b8015620003545780601f10620003285761010080835404028352916020019162000354565b820191906000526020600020905b8154815290600101906020018083116200033657829003601f168201915b505050505060068054620003689062000993565b80601f0160208091040260200160405190810160405280929190818152602001828054620003969062000993565b8015620003e75780601f10620003bb57610100808354040283529160200191620003e7565b820191906000526020600020905b815481529060010190602001808311620003c957829003601f168201915b50505050508160039081620003fd919062000ba4565b5080600490816200040f919062000ba4565b50505062000448600d60009054906101000a900473ffffffffffffffffffffffffffffffffffffffff166007546200056b60201b60201c565b620004a7600d60009054906101000a900473ffffffffffffffffffffffffffffffffffffffff16601060009054906101000a900473ffffffffffffffffffffffffffffffffffffffff16670429d069189e0000620005f860201b60201c565b62000506600d60009054906101000a900473ffffffffffffffffffffffffffffffffffffffff16601160009054906101000a900473ffffffffffffffffffffffffffffffffffffffff1667058d15e176280000620005f860201b60201c565b62000565600d60009054906101000a900473ffffffffffffffffffffffffffffffffffffffff16601260009054906101000a900473ffffffffffffffffffffffffffffffffffffffff166702c68af0bb140000620005f860201b60201c565b62000dc2565b600073ffffffffffffffffffffffffffffffffffffffff168273ffffffffffffffffffffffffffffffffffffffff1603620005e05760006040517fec442f05000000000000000000000000000000000000000000000000000000008152600401620005d7919062000cd0565b60405180910390fd5b620005f460008383620006fa60201b60201c565b5050565b600073ffffffffffffffffffffffffffffffffffffffff168373ffffffffffffffffffffffffffffffffffffffff16036200066d5760006040517f96c6fd1e00000000000000000000000000000000000000000000000000000000815260040162000664919062000cd0565b60405180910390fd5b600073ffffffffffffffffffffffffffffffffffffffff168273ffffffffffffffffffffffffffffffffffffffff1603620006e25760006040517fec442f05000000000000000000000000000000000000000000000000000000008152600401620006d9919062000cd0565b60405180910390fd5b620006f5838383620006fa60201b60201c565b505050565b600073ffffffffffffffffffffffffffffffffffffffff168373ffffffffffffffffffffffffffffffffffffffff16036200075057806002600082825462000743919062000d1c565b9250508190555062000826565b60008060008573ffffffffffffffffffffffffffffffffffffffff1673ffffffffffffffffffffffffffffffffffffffff16815260200190815260200160002054905081811015620007df578381836040517fe450d38c000000000000000000000000000000000000000000000000000000008152600401620007d69392919062000d68565b60405180910390fd5b8181036000808673ffffffffffffffffffffffffffffffffffffffff1673ffffffffffffffffffffffffffffffffffffffff16815260200190815260200160002081905550505b600073ffffffffffffffffffffffffffffffffffffffff168273ffffffffffffffffffffffffffffffffffffffff1603620008715780600260008282540392505081905550620008be565b806000808473ffffffffffffffffffffffffffffffffffffffff1673ffffffffffffffffffffffffffffffffffffffff168152602001908152602001600020600082825401925050819055505b8173ffffffffffffffffffffffffffffffffffffffff168373ffffffffffffffffffffffffffffffffffffffff167fddf252ad1be2c89b69c2b068fc378daa952ba7f163c4a11628f55a4df523b3ef836040516200091d919062000da5565b60405180910390a3505050565b600081519050919050565b7f4e487b7100000000000000000000000000000000000000000000000000000000600052604160045260246000fd5b7f4e487b7100000000000000000000000000000000000000000000000000000000600052602260045260246000fd5b60006002820490506001821680620009ac57607f821691505b602082108103620009c257620009c162000964565b5b50919050565b60008190508160005260206000209050919050565b60006020601f8301049050919050565b600082821b905092915050565b60006008830262000a2c7fffffffffffffffffffffffffffffffffffffffffffffffffffffffffffffffff82620009ed565b62000a388683620009ed565b95508019841693508086168417925050509392505050565b6000819050919050565b6000819050919050565b600062000a8562000a7f62000a798462000a50565b62000a5a565b62000a50565b9050919050565b6000819050919050565b62000aa18362000a64565b62000ab962000ab08262000a8c565b848454620009fa565b825550505050565b600090565b62000ad062000ac1565b62000add81848462000a96565b505050565b5b8181101562000b055762000af960008262000ac6565b60018101905062000ae3565b5050565b601f82111562000b545762000b1e81620009c8565b62000b2984620009dd565b8101602085101562000b39578190505b62000b5162000b4885620009dd565b83018262000ae2565b50505b505050565b600082821c905092915050565b600062000b796000198460080262000b59565b1980831691505092915050565b600062000b94838362000b66565b9150826002028217905092915050565b62000baf826200092a565b67ffffffffffffffff81111562000bcb5762000bca62000935565b5b62000bd7825462000993565b62000be482828562000b09565b600060209050601f83116001811462000c1c576000841562000c07578287015190505b62000c13858262000b86565b86555062000c83565b601f19841662000c2c86620009c8565b60005b8281101562000c565784890151825560018201915060208501945060208101905062000c2f565b8683101562000c76578489015162000c72601f89168262000b66565b8355505b6001600288020188555050505b505050505050565b600073ffffffffffffffffffffffffffffffffffffffff82169050919050565b600062000cb88262000c8b565b9050919050565b62000cca8162000cab565b82525050565b600060208201905062000ce7600083018462000cbf565b92915050565b7f4e487b7100000000000000000000000000000000000000000000000000000000600052601160045260246000fd5b600062000d298262000a50565b915062000d368362000a50565b925082820190508082111562000d515762000d5062000ced565b5b92915050565b62000d628162000a50565b82525050565b600060608201905062000d7f600083018662000cbf565b62000d8e602083018562000d57565b62000d9d604083018462000d57565b949350505050565b600060208201905062000dbc600083018462000d57565b92915050565b6115398062000dd26000396000f3fe608060405234801561001057600080fd5b50600436106100b45760003560e01c80633eaaf86b116100715780633eaaf86b14610191578063604d5a5d146101af57806370a08231146101d057806395d89b4114610200578063a9059cbb1461021e578063dd62ed3e1461024e576100b4565b806306fdde03146100b9578063095ea7b3146100d757806318160ddd1461010757806323b872dd14610125578063313ce5671461015557806332424aa314610173575b600080fd5b6100c161027e565b6040516100ce9190611062565b60405180910390f35b6100f160048036038101906100ec919061111d565b610310565b6040516100fe9190611178565b60405180910390f35b61010f610333565b60405161011c91906111a2565b60405180910390f35b61013f600480360381019061013a91906111bd565b61033d565b60405161014c9190611178565b60405180910390f35b61015d61036c565b60405161016a919061122c565b60405180910390f35b61017b610375565b604051610188919061122c565b60405180910390f35b610199610388565b6040516101a691906111a2565b60405180910390f35b6101b761038e565b6040516101c79493929190611247565b60405180910390f35b6101ea60048036038101906101e5919061129a565b6108b0565b6040516101f791906111a2565b60405180910390f35b6102086108f8565b6040516102159190611062565b60405180910390f35b6102386004803603810190610233919061111d565b61098a565b6040516102459190611178565b60405180910390f35b610268600480360381019061026391906112c7565b6109ad565b60405161027591906111a2565b60405180910390f35b60606003805461028d90611336565b80601f01602080910402602001604051908101604052809291908181526020018280546102b990611336565b80156103065780601f106102db57610100808354040283529160200191610306565b820191906000526020600020905b8154815290600101906020018083116102e957829003601f168201915b5050505050905090565b60008061031b610a34565b9050610328818585610a3c565b600191505092915050565b6000600254905090565b600080610348610a34565b9050610355858285610a4e565b610360858585610ae2565b60019150509392505050565b60006012905090565b600860009054906101000a900460ff1681565b60075481565b606080600080600160001515811515036106215760001515600960003373ffffffffffffffffffffffffffffffffffffffff1673ffffffffffffffffffffffffffffffffffffffff16815260200190815260200160002060009054906101000a900460ff16151514610435576040517f08c379a000000000000000000000000000000000000000000000000000000000815260040161042c906113b3565b60405180910390fd5b600a60003373ffffffffffffffffffffffffffffffffffffffff1673ffffffffffffffffffffffffffffffffffffffff168152602001908152602001600020600b60003373ffffffffffffffffffffffffffffffffffffffff1673ffffffffffffffffffffffffffffffffffffffff168152602001908152602001600020600c60003373ffffffffffffffffffffffffffffffffffffffff1673ffffffffffffffffffffffffffffffffffffffff168152602001908152602001600020546104fc336108b0565b83805461050890611336565b80601f016020809104026020016040519081016040528092919081815260200182805461053490611336565b80156105815780601f1061055657610100808354040283529160200191610581565b820191906000526020600020905b81548152906001019060200180831161056457829003601f168201915b5050505050935082805461059490611336565b80601f01602080910402602001604051908101604052809291908181526020018280546105c090611336565b801561060d5780601f106105e25761010080835404028352916020019161060d565b820191906000526020600020905b8154815290600101906020018083116105f057829003601f168201915b5050505050925094509450945094506108a9565b60011515811515036108a85760011515600960003373ffffffffffffffffffffffffffffffffffffffff1673ffffffffffffffffffffffffffffffffffffffff16815260200190815260200160002060009054906101000a900460ff161515146106c0576040517f08c379a00000000000000000000000000000000000000000000000000000000081526004016106b79061141f565b60405180910390fd5b600a60003373ffffffffffffffffffffffffffffffffffffffff1673ffffffffffffffffffffffffffffffffffffffff168152602001908152602001600020600b60003373ffffffffffffffffffffffffffffffffffffffff1673ffffffffffffffffffffffffffffffffffffffff168152602001908152602001600020600c60003373ffffffffffffffffffffffffffffffffffffffff1673ffffffffffffffffffffffffffffffffffffffff16815260200190815260200160002054610787336108b0565b83805461079390611336565b80601f01602080910402602001604051908101604052809291908181526020018280546107bf90611336565b801561080c5780601f106107e15761010080835404028352916020019161080c565b820191906000526020600020905b8154815290600101906020018083116107ef57829003601f168201915b5050505050935082805461081f90611336565b80601f016020809104026020016040519081016040528092919081815260200182805461084b90611336565b80156108985780601f1061086d57610100808354040283529160200191610898565b820191906000526020600020905b81548152906001019060200180831161087b57829003601f168201915b5050505050925094509450945094505b5b5090919293565b60008060008373ffffffffffffffffffffffffffffffffffffffff1673ffffffffffffffffffffffffffffffffffffffff168152602001908152602001600020549050919050565b60606004805461090790611336565b80601f016020809104026020016040519081016040528092919081815260200182805461093390611336565b80156109805780601f1061095557610100808354040283529160200191610980565b820191906000526020600020905b81548152906001019060200180831161096357829003601f168201915b5050505050905090565b600080610995610a34565b90506109a2818585610ae2565b600191505092915050565b6000600160008473ffffffffffffffffffffffffffffffffffffffff1673ffffffffffffffffffffffffffffffffffffffff16815260200190815260200160002060008373ffffffffffffffffffffffffffffffffffffffff1673ffffffffffffffffffffffffffffffffffffffff16815260200190815260200160002054905092915050565b600033905090565b610a498383836001610bd6565b505050565b6000610a5a84846109ad565b90507fffffffffffffffffffffffffffffffffffffffffffffffffffffffffffffffff8114610adc5781811015610acc578281836040517ffb8f41b2000000000000000000000000000000000000000000000000000000008152600401610ac39392919061144e565b60405180910390fd5b610adb84848484036000610bd6565b5b50505050565b600073ffffffffffffffffffffffffffffffffffffffff168373ffffffffffffffffffffffffffffffffffffffff1603610b545760006040517f96c6fd1e000000000000000000000000000000000000000000000000000000008152600401610b4b9190611485565b60405180910390fd5b600073ffffffffffffffffffffffffffffffffffffffff168273ffffffffffffffffffffffffffffffffffffffff1603610bc65760006040517fec442f05000000000000000000000000000000000000000000000000000000008152600401610bbd9190611485565b60405180910390fd5b610bd1838383610dad565b505050565b600073ffffffffffffffffffffffffffffffffffffffff168473ffffffffffffffffffffffffffffffffffffffff1603610c485760006040517fe602df05000000000000000000000000000000000000000000000000000000008152600401610c3f9190611485565b60405180910390fd5b600073ffffffffffffffffffffffffffffffffffffffff168373ffffffffffffffffffffffffffffffffffffffff1603610cba5760006040517f94280d62000000000000000000000000000000000000000000000000000000008152600401610cb19190611485565b60405180910390fd5b81600160008673ffffffffffffffffffffffffffffffffffffffff1673ffffffffffffffffffffffffffffffffffffffff16815260200190815260200160002060008573ffffffffffffffffffffffffffffffffffffffff1673ffffffffffffffffffffffffffffffffffffffff168152602001908152602001600020819055508015610da7578273ffffffffffffffffffffffffffffffffffffffff168473ffffffffffffffffffffffffffffffffffffffff167f8c5be1e5ebec7d5bd14f71427d1e84f3dd0314c0f7b2291e5b200ac8c7c3b92584604051610d9e91906111a2565b60405180910390a35b50505050565b600073ffffffffffffffffffffffffffffffffffffffff168373ffffffffffffffffffffffffffffffffffffffff1603610dff578060026000828254610df391906114cf565b92505081905550610ed2565b60008060008573ffffffffffffffffffffffffffffffffffffffff1673ffffffffffffffffffffffffffffffffffffffff16815260200190815260200160002054905081811015610e8b578381836040517fe450d38c000000000000000000000000000000000000000000000000000000008152600401610e829392919061144e565b60405180910390fd5b8181036000808673ffffffffffffffffffffffffffffffffffffffff1673ffffffffffffffffffffffffffffffffffffffff16815260200190815260200160002081905550505b600073ffffffffffffffffffffffffffffffffffffffff168273ffffffffffffffffffffffffffffffffffffffff1603610f1b5780600260008282540392505081905550610f68565b806000808473ffffffffffffffffffffffffffffffffffffffff1673ffffffffffffffffffffffffffffffffffffffff168152602001908152602001600020600082825401925050819055505b8173ffffffffffffffffffffffffffffffffffffffff168373ffffffffffffffffffffffffffffffffffffffff167fddf252ad1be2c89b69c2b068fc378daa952ba7f163c4a11628f55a4df523b3ef83604051610fc591906111a2565b60405180910390a3505050565b600081519050919050565b600082825260208201905092915050565b60005b8381101561100c578082015181840152602081019050610ff1565b60008484015250505050565b6000601f19601f8301169050919050565b600061103482610fd2565b61103e8185610fdd565b935061104e818560208601610fee565b61105781611018565b840191505092915050565b6000602082019050818103600083015261107c8184611029565b905092915050565b600080fd5b600073ffffffffffffffffffffffffffffffffffffffff82169050919050565b60006110b482611089565b9050919050565b6110c4816110a9565b81146110cf57600080fd5b50565b6000813590506110e1816110bb565b92915050565b6000819050919050565b6110fa816110e7565b811461110557600080fd5b50565b600081359050611117816110f1565b92915050565b6000806040838503121561113457611133611084565b5b6000611142858286016110d2565b925050602061115385828601611108565b9150509250929050565b60008115159050919050565b6111728161115d565b82525050565b600060208201905061118d6000830184611169565b92915050565b61119c816110e7565b82525050565b60006020820190506111b76000830184611193565b92915050565b6000806000606084860312156111d6576111d5611084565b5b60006111e4868287016110d2565b93505060206111f5868287016110d2565b925050604061120686828701611108565b9150509250925092565b600060ff82169050919050565b61122681611210565b82525050565b6000602082019050611241600083018461121d565b92915050565b600060808201905081810360008301526112618187611029565b905081810360208301526112758186611029565b90506112846040830185611193565b6112916060830184611193565b95945050505050565b6000602082840312156112b0576112af611084565b5b60006112be848285016110d2565b91505092915050565b600080604083850312156112de576112dd611084565b5b60006112ec858286016110d2565b92505060206112fd858286016110d2565b9150509250929050565b7f4e487b7100000000000000000000000000000000000000000000000000000000600052602260045260246000fd5b6000600282049050600182168061134e57607f821691505b60208210810361136157611360611307565b5b50919050565b7f557365722068617665206265656e207265676973747265640000000000000000600082015250565b600061139d601883610fdd565b91506113a882611367565b602082019050919050565b600060208201905081810360008301526113cc81611390565b9050919050565b7f55736572206e6f74207265676973747265640000000000000000000000000000600082015250565b6000611409601283610fdd565b9150611414826113d3565b602082019050919050565b60006020820190508181036000830152611438816113fc565b9050919050565b611448816110a9565b82525050565b6000606082019050611463600083018661143f565b6114706020830185611193565b61147d6040830184611193565b949350505050565b600060208201905061149a600083018461143f565b92915050565b7f4e487b7100000000000000000000000000000000000000000000000000000000600052601160045260246000fd5b60006114da826110e7565b91506114e5836110e7565b92508282019050808211156114fd576114fc6114a0565b5b9291505056fea2646970667358221220ce48fbb2af6ed7d0ae7eeb682f114703167cb7db3619004683ba998ce731f5b664736f6c63430008170033",
  "linkReferences": {},
  "deployedLinkReferences": {}
}