{
  "_format": "hh-sol-artifact-1",
  "contractName": "Main",
  "sourceName": "contracts/main.sol",
  "abi": [
    {
      "inputs": [
        {
          "internalType": "address",
          "name": "spender",
          "type": "address"
        },
        {
          "internalType": "uint256",
          "name": "allowance",
          "type": "uint256"
        },
        {
          "internalType": "uint256",
          "name": "needed",
          "type": "uint256"
        }
      ],
      "name": "ERC20InsufficientAllowance",
      "type": "error"
    },
    {
      "inputs": [
        {
          "internalType": "address",
          "name": "sender",
          "type": "address"
        },
        {
          "internalType": "uint256",
          "name": "balance",
          "type": "uint256"
        },
        {
          "internalType": "uint256",
          "name": "needed",
          "type": "uint256"
        }
      ],
      "name": "ERC20InsufficientBalance",
      "type": "error"
    },
    {
      "inputs": [
        {
          "internalType": "address",
          "name": "approver",
          "type": "address"
        }
      ],
      "name": "ERC20InvalidApprover",
      "type": "error"
    },
    {
      "inputs": [
        {
          "internalType": "address",
          "name": "receiver",
          "type": "address"
        }
      ],
      "name": "ERC20InvalidReceiver",
      "type": "error"
    },
    {
      "inputs": [
        {
          "internalType": "address",
          "name": "sender",
          "type": "address"
        }
      ],
      "name": "ERC20InvalidSender",
      "type": "error"
    },
    {
      "inputs": [
        {
          "internalType": "address",
          "name": "spender",
          "type": "address"
        }
      ],
      "name": "ERC20InvalidSpender",
      "type": "error"
    },
    {
      "anonymous": false,
      "inputs": [
        {
          "indexed": true,
          "internalType": "address",
          "name": "owner",
          "type": "address"
        },
        {
          "indexed": true,
          "internalType": "address",
          "name": "spender",
          "type": "address"
        },
        {
          "indexed": false,
          "internalType": "uint256",
          "name": "value",
          "type": "uint256"
        }
      ],
      "name": "Approval",
      "type": "event"
    },
    {
      "anonymous": false,
      "inputs": [
        {
          "indexed": true,
          "internalType": "address",
          "name": "from",
          "type": "address"
        },
        {
          "indexed": true,
          "internalType": "address",
          "name": "to",
          "type": "address"
        },
        {
          "indexed": false,
          "internalType": "uint256",
          "name": "value",
          "type": "uint256"
        }
      ],
      "name": "Transfer",
      "type": "event"
    },
    {
      "inputs": [],
      "name": "_decimals",
      "outputs": [
        {
          "internalType": "uint8",
          "name": "",
          "type": "uint8"
        }
      ],
      "stateMutability": "view",
      "type": "function"
    },
    {
      "inputs": [],
      "name": "_totalSupply",
      "outputs": [
        {
          "internalType": "uint256",
          "name": "",
          "type": "uint256"
        }
      ],
      "stateMutability": "view",
      "type": "function"
    },
    {
      "inputs": [
        {
          "internalType": "address",
          "name": "owner",
          "type": "address"
        },
        {
          "internalType": "address",
          "name": "spender",
          "type": "address"
        }
      ],
      "name": "allowance",
      "outputs": [
        {
          "internalType": "uint256",
          "name": "",
          "type": "uint256"
        }
      ],
      "stateMutability": "view",
      "type": "function"
    },
    {
      "inputs": [
        {
          "internalType": "address",
          "name": "spender",
          "type": "address"
        },
        {
          "internalType": "uint256",
          "name": "value",
          "type": "uint256"
        }
      ],
      "name": "approve",
      "outputs": [
        {
          "internalType": "bool",
          "name": "",
          "type": "bool"
        }
      ],
      "stateMutability": "nonpayable",
      "type": "function"
    },
    {
      "inputs": [],
      "name": "autoth",
      "outputs": [
        {
          "internalType": "string",
          "name": "name",
          "type": "string"
        },
        {
          "internalType": "string",
          "name": "password",
          "type": "string"
        },
        {
          "internalType": "uint256",
          "name": "timeForReg",
          "type": "uint256"
        },
        {
          "internalType": "uint256",
          "name": "balance",
          "type": "uint256"
        }
      ],
      "stateMutability": "view",
      "type": "function"
    },
    {
      "inputs": [
        {
          "internalType": "address",
          "name": "account",
          "type": "address"
        }
      ],
      "name": "balanceOf",
      "outputs": [
        {
          "internalType": "uint256",
          "name": "",
          "type": "uint256"
        }
      ],
      "stateMutability": "view",
      "type": "function"
    },
    {
      "inputs": [],
      "name": "cycleTime",
      "outputs": [],
      "stateMutability": "nonpayable",
      "type": "function"
    },
    {
      "inputs": [],
      "name": "decimals",
      "outputs": [
        {
          "internalType": "uint8",
          "name": "",
          "type": "uint8"
        }
      ],
      "stateMutability": "view",
      "type": "function"
    },
    {
      "inputs": [],
      "name": "name",
      "outputs": [
        {
          "internalType": "string",
          "name": "",
          "type": "string"
        }
      ],
      "stateMutability": "view",
      "type": "function"
    },
    {
      "inputs": [],
      "name": "skipTime",
      "outputs": [],
      "stateMutability": "nonpayable",
      "type": "function"
    },
    {
      "inputs": [],
      "name": "symbol",
      "outputs": [
        {
          "internalType": "string",
          "name": "",
          "type": "string"
        }
      ],
      "stateMutability": "view",
      "type": "function"
    },
    {
      "inputs": [],
      "name": "totalSupply",
      "outputs": [
        {
          "internalType": "uint256",
          "name": "",
          "type": "uint256"
        }
      ],
      "stateMutability": "view",
      "type": "function"
    },
    {
      "inputs": [
        {
          "internalType": "address",
          "name": "to",
          "type": "address"
        },
        {
          "internalType": "uint256",
          "name": "value",
          "type": "uint256"
        }
      ],
      "name": "transfer",
      "outputs": [
        {
          "internalType": "bool",
          "name": "",
          "type": "bool"
        }
      ],
      "stateMutability": "nonpayable",
      "type": "function"
    },
    {
      "inputs": [
        {
          "internalType": "address",
          "name": "from",
          "type": "address"
        },
        {
          "internalType": "address",
          "name": "to",
          "type": "address"
        },
        {
          "internalType": "uint256",
          "name": "value",
          "type": "uint256"
        }
      ],
      "name": "transferFrom",
      "outputs": [
        {
          "internalType": "bool",
          "name": "",
          "type": "bool"
        }
      ],
      "stateMutability": "nonpayable",
      "type": "function"
    },
    {
      "inputs": [],
      "name": "viewTime",
      "outputs": [
        {
          "internalType": "uint256",
          "name": "",
          "type": "uint256"
        },
        {
          "internalType": "uint256",
          "name": "",
          "type": "uint256"
        },
        {
          "internalType": "uint256",
          "name": "",
          "type": "uint256"
        },
        {
          "internalType": "uint256",
          "name": "",
          "type": "uint256"
        },
        {
          "internalType": "uint256",
          "name": "",
          "type": "uint256"
        }
      ],
      "stateMutability": "view",
      "type": "function"
    }
  ],
  "bytecode": "0x60806040526040518060400160405280600d81526020017f43727970746f4d6f6e7374657200000000000000000000000000000000000000815250600590816200004a919062000bdc565b506040518060400160405280600481526020017f434d4f4e000000000000000000000000000000000000000000000000000000008152506006908162000091919062000bdc565b50670de0b6b3a7640000600755600c600860006101000a81548160ff021916908360ff160217905550735b38da6a701c568545dcfcb03fcb875f56beddc4600d60006101000a81548173ffffffffffffffffffffffffffffffffffffffff021916908373ffffffffffffffffffffffffffffffffffffffff16021790555073ab8483f64d9c6d1ecf9b849ae677dd3315835cb2600e60006101000a81548173ffffffffffffffffffffffffffffffffffffffff021916908373ffffffffffffffffffffffffffffffffffffffff160217905550734b20993bc481177ec7e8f571cecae8a9e22c02db600f60006101000a81548173ffffffffffffffffffffffffffffffffffffffff021916908373ffffffffffffffffffffffffffffffffffffffff1602179055507378731d3ca6b7e34ac0f824c42a7cc18a495cabab601060006101000a81548173ffffffffffffffffffffffffffffffffffffffff021916908373ffffffffffffffffffffffffffffffffffffffff16021790555073617f2e2fd72fd9d5503197092ac168c91465e7f2601160006101000a81548173ffffffffffffffffffffffffffffffffffffffff021916908373ffffffffffffffffffffffffffffffffffffffff1602179055507317f6ad8ef982297579c203069c1dbffe4348c372601260006101000a81548173ffffffffffffffffffffffffffffffffffffffff021916908373ffffffffffffffffffffffffffffffffffffffff160217905550426013556013546014556013546015556000601655603c601354601554620002e1919062000cf2565b620002ed919062000d5c565b601755348015620002fd57600080fd5b50600580546200030d90620009cb565b80601f01602080910402602001604051908101604052809291908181526020018280546200033b90620009cb565b80156200038c5780601f1062000360576101008083540402835291602001916200038c565b820191906000526020600020905b8154815290600101906020018083116200036e57829003601f168201915b505050505060068054620003a090620009cb565b80601f0160208091040260200160405190810160405280929190818152602001828054620003ce90620009cb565b80156200041f5780601f10620003f3576101008083540402835291602001916200041f565b820191906000526020600020905b8154815290600101906020018083116200040157829003601f168201915b5050505050816003908162000435919062000bdc565b50806004908162000447919062000bdc565b50505062000480600d60009054906101000a900473ffffffffffffffffffffffffffffffffffffffff16600754620005a360201b60201c565b620004df600d60009054906101000a900473ffffffffffffffffffffffffffffffffffffffff16601060009054906101000a900473ffffffffffffffffffffffffffffffffffffffff16670429d069189e00006200063060201b60201c565b6200053e600d60009054906101000a900473ffffffffffffffffffffffffffffffffffffffff16601160009054906101000a900473ffffffffffffffffffffffffffffffffffffffff1667058d15e1762800006200063060201b60201c565b6200059d600d60009054906101000a900473ffffffffffffffffffffffffffffffffffffffff16601260009054906101000a900473ffffffffffffffffffffffffffffffffffffffff166702c68af0bb1400006200063060201b60201c565b62000e9c565b600073ffffffffffffffffffffffffffffffffffffffff168273ffffffffffffffffffffffffffffffffffffffff1603620006185760006040517fec442f050000000000000000000000000000000000000000000000000000000081526004016200060f919062000dd9565b60405180910390fd5b6200062c600083836200073260201b60201c565b5050565b600073ffffffffffffffffffffffffffffffffffffffff168373ffffffffffffffffffffffffffffffffffffffff1603620006a55760006040517f96c6fd1e0000000000000000000000000000000000000000000000000000000081526004016200069c919062000dd9565b60405180910390fd5b600073ffffffffffffffffffffffffffffffffffffffff168273ffffffffffffffffffffffffffffffffffffffff16036200071a5760006040517fec442f0500000000000000000000000000000000000000000000000000000000815260040162000711919062000dd9565b60405180910390fd5b6200072d8383836200073260201b60201c565b505050565b600073ffffffffffffffffffffffffffffffffffffffff168373ffffffffffffffffffffffffffffffffffffffff1603620007885780600260008282546200077b919062000df6565b925050819055506200085e565b60008060008573ffffffffffffffffffffffffffffffffffffffff1673ffffffffffffffffffffffffffffffffffffffff1681526020019081526020016000205490508181101562000817578381836040517fe450d38c0000000000000000000000000000000000000000000000000000000081526004016200080e9392919062000e42565b60405180910390fd5b8181036000808673ffffffffffffffffffffffffffffffffffffffff1673ffffffffffffffffffffffffffffffffffffffff16815260200190815260200160002081905550505b600073ffffffffffffffffffffffffffffffffffffffff168273ffffffffffffffffffffffffffffffffffffffff1603620008a95780600260008282540392505081905550620008f6565b806000808473ffffffffffffffffffffffffffffffffffffffff1673ffffffffffffffffffffffffffffffffffffffff168152602001908152602001600020600082825401925050819055505b8173ffffffffffffffffffffffffffffffffffffffff168373ffffffffffffffffffffffffffffffffffffffff167fddf252ad1be2c89b69c2b068fc378daa952ba7f163c4a11628f55a4df523b3ef8360405162000955919062000e7f565b60405180910390a3505050565b600081519050919050565b7f4e487b7100000000000000000000000000000000000000000000000000000000600052604160045260246000fd5b7f4e487b7100000000000000000000000000000000000000000000000000000000600052602260045260246000fd5b60006002820490506001821680620009e457607f821691505b602082108103620009fa57620009f96200099c565b5b50919050565b60008190508160005260206000209050919050565b60006020601f8301049050919050565b600082821b905092915050565b60006008830262000a647fffffffffffffffffffffffffffffffffffffffffffffffffffffffffffffffff8262000a25565b62000a70868362000a25565b95508019841693508086168417925050509392505050565b6000819050919050565b6000819050919050565b600062000abd62000ab762000ab18462000a88565b62000a92565b62000a88565b9050919050565b6000819050919050565b62000ad98362000a9c565b62000af162000ae88262000ac4565b84845462000a32565b825550505050565b600090565b62000b0862000af9565b62000b1581848462000ace565b505050565b5b8181101562000b3d5762000b3160008262000afe565b60018101905062000b1b565b5050565b601f82111562000b8c5762000b568162000a00565b62000b618462000a15565b8101602085101562000b71578190505b62000b8962000b808562000a15565b83018262000b1a565b50505b505050565b600082821c905092915050565b600062000bb16000198460080262000b91565b1980831691505092915050565b600062000bcc838362000b9e565b9150826002028217905092915050565b62000be78262000962565b67ffffffffffffffff81111562000c035762000c026200096d565b5b62000c0f8254620009cb565b62000c1c82828562000b41565b600060209050601f83116001811462000c54576000841562000c3f578287015190505b62000c4b858262000bbe565b86555062000cbb565b601f19841662000c648662000a00565b60005b8281101562000c8e5784890151825560018201915060208501945060208101905062000c67565b8683101562000cae578489015162000caa601f89168262000b9e565b8355505b6001600288020188555050505b505050505050565b7f4e487b7100000000000000000000000000000000000000000000000000000000600052601160045260246000fd5b600062000cff8262000a88565b915062000d0c8362000a88565b925082820390508181111562000d275762000d2662000cc3565b5b92915050565b7f4e487b7100000000000000000000000000000000000000000000000000000000600052601260045260246000fd5b600062000d698262000a88565b915062000d768362000a88565b92508262000d895762000d8862000d2d565b5b828204905092915050565b600073ffffffffffffffffffffffffffffffffffffffff82169050919050565b600062000dc18262000d94565b9050919050565b62000dd38162000db4565b82525050565b600060208201905062000df0600083018462000dc8565b92915050565b600062000e038262000a88565b915062000e108362000a88565b925082820190508082111562000e2b5762000e2a62000cc3565b5b92915050565b62000e3c8162000a88565b82525050565b600060608201905062000e59600083018662000dc8565b62000e68602083018562000e31565b62000e77604083018462000e31565b949350505050565b600060208201905062000e96600083018462000e31565b92915050565b6117298062000eac6000396000f3fe608060405234801561001057600080fd5b50600436106100f55760003560e01c80633eaaf86b11610097578063a9059cbb11610066578063a9059cbb14610269578063b11cd64a14610299578063d708e2c1146102bb578063dd62ed3e146102c5576100f5565b80633eaaf86b146101dc578063604d5a5d146101fa57806370a082311461021b57806395d89b411461024b576100f5565b806318160ddd116100d357806318160ddd1461015257806323b872dd14610170578063313ce567146101a057806332424aa3146101be576100f5565b806306fdde03146100fa578063095ea7b3146101185780631733ffe514610148575b600080fd5b6101026102f5565b60405161010f919061116b565b60405180910390f35b610132600480360381019061012d9190611226565b610387565b60405161013f9190611281565b60405180910390f35b6101506103aa565b005b61015a6103df565b60405161016791906112ab565b60405180910390f35b61018a600480360381019061018591906112c6565b6103e9565b6040516101979190611281565b60405180910390f35b6101a8610418565b6040516101b59190611335565b60405180910390f35b6101c6610421565b6040516101d39190611335565b60405180910390f35b6101e4610434565b6040516101f191906112ab565b60405180910390f35b61020261043a565b6040516102129493929190611350565b60405180910390f35b610235600480360381019061023091906113a3565b61095c565b60405161024291906112ab565b60405180910390f35b6102536109a4565b604051610260919061116b565b60405180910390f35b610283600480360381019061027e9190611226565b610a36565b6040516102909190611281565b60405180910390f35b6102a1610a59565b6040516102b29594939291906113d0565b60405180910390f35b6102c3610a81565b005b6102df60048036038101906102da9190611423565b610a92565b6040516102ec91906112ab565b60405180910390f35b60606003805461030490611492565b80601f016020809104026020016040519081016040528092919081815260200182805461033090611492565b801561037d5780601f106103525761010080835404028352916020019161037d565b820191906000526020600020905b81548152906001019060200180831161036057829003601f168201915b5050505050905090565b600080610392610b19565b905061039f818585610b21565b600191505092915050565b603c6016546103b991906114f2565b6016819055506016546014546103cf91906114f2565b6015819055506103dd610b33565b565b6000600254905090565b6000806103f4610b19565b9050610401858285610b57565b61040c858585610beb565b60019150509392505050565b60006012905090565b600860009054906101000a900460ff1681565b60075481565b606080600080600160001515811515036106cd5760001515600960003373ffffffffffffffffffffffffffffffffffffffff1673ffffffffffffffffffffffffffffffffffffffff16815260200190815260200160002060009054906101000a900460ff161515146104e1576040517f08c379a00000000000000000000000000000000000000000000000000000000081526004016104d890611572565b60405180910390fd5b600a60003373ffffffffffffffffffffffffffffffffffffffff1673ffffffffffffffffffffffffffffffffffffffff168152602001908152602001600020600b60003373ffffffffffffffffffffffffffffffffffffffff1673ffffffffffffffffffffffffffffffffffffffff168152602001908152602001600020600c60003373ffffffffffffffffffffffffffffffffffffffff1673ffffffffffffffffffffffffffffffffffffffff168152602001908152602001600020546105a83361095c565b8380546105b490611492565b80601f01602080910402602001604051908101604052809291908181526020018280546105e090611492565b801561062d5780601f106106025761010080835404028352916020019161062d565b820191906000526020600020905b81548152906001019060200180831161061057829003601f168201915b5050505050935082805461064090611492565b80601f016020809104026020016040519081016040528092919081815260200182805461066c90611492565b80156106b95780601f1061068e576101008083540402835291602001916106b9565b820191906000526020600020905b81548152906001019060200180831161069c57829003601f168201915b505050505092509450945094509450610955565b60011515811515036109545760011515600960003373ffffffffffffffffffffffffffffffffffffffff1673ffffffffffffffffffffffffffffffffffffffff16815260200190815260200160002060009054906101000a900460ff1615151461076c576040517f08c379a0000000000000000000000000000000000000000000000000000000008152600401610763906115de565b60405180910390fd5b600a60003373ffffffffffffffffffffffffffffffffffffffff1673ffffffffffffffffffffffffffffffffffffffff168152602001908152602001600020600b60003373ffffffffffffffffffffffffffffffffffffffff1673ffffffffffffffffffffffffffffffffffffffff168152602001908152602001600020600c60003373ffffffffffffffffffffffffffffffffffffffff1673ffffffffffffffffffffffffffffffffffffffff168152602001908152602001600020546108333361095c565b83805461083f90611492565b80601f016020809104026020016040519081016040528092919081815260200182805461086b90611492565b80156108b85780601f1061088d576101008083540402835291602001916108b8565b820191906000526020600020905b81548152906001019060200180831161089b57829003601f168201915b505050505093508280546108cb90611492565b80601f01602080910402602001604051908101604052809291908181526020018280546108f790611492565b80156109445780601f1061091957610100808354040283529160200191610944565b820191906000526020600020905b81548152906001019060200180831161092757829003601f168201915b5050505050925094509450945094505b5b5090919293565b60008060008373ffffffffffffffffffffffffffffffffffffffff1673ffffffffffffffffffffffffffffffffffffffff168152602001908152602001600020549050919050565b6060600480546109b390611492565b80601f01602080910402602001604051908101604052809291908181526020018280546109df90611492565b8015610a2c5780601f10610a0157610100808354040283529160200191610a2c565b820191906000526020600020905b815481529060010190602001808311610a0f57829003601f168201915b5050505050905090565b600080610a41610b19565b9050610a4e818585610beb565b600191505092915050565b6000806000806000601354601454601554601654601754945094509450945094509091929394565b42601481905550610a90610b33565b565b6000600160008473ffffffffffffffffffffffffffffffffffffffff1673ffffffffffffffffffffffffffffffffffffffff16815260200190815260200160002060008373ffffffffffffffffffffffffffffffffffffffff1673ffffffffffffffffffffffffffffffffffffffff16815260200190815260200160002054905092915050565b600033905090565b610b2e8383836001610cdf565b505050565b603c601354601554610b4591906115fe565b610b4f9190611661565b601781905550565b6000610b638484610a92565b90507fffffffffffffffffffffffffffffffffffffffffffffffffffffffffffffffff8114610be55781811015610bd5578281836040517ffb8f41b2000000000000000000000000000000000000000000000000000000008152600401610bcc939291906116a1565b60405180910390fd5b610be484848484036000610cdf565b5b50505050565b600073ffffffffffffffffffffffffffffffffffffffff168373ffffffffffffffffffffffffffffffffffffffff1603610c5d5760006040517f96c6fd1e000000000000000000000000000000000000000000000000000000008152600401610c5491906116d8565b60405180910390fd5b600073ffffffffffffffffffffffffffffffffffffffff168273ffffffffffffffffffffffffffffffffffffffff1603610ccf5760006040517fec442f05000000000000000000000000000000000000000000000000000000008152600401610cc691906116d8565b60405180910390fd5b610cda838383610eb6565b505050565b600073ffffffffffffffffffffffffffffffffffffffff168473ffffffffffffffffffffffffffffffffffffffff1603610d515760006040517fe602df05000000000000000000000000000000000000000000000000000000008152600401610d4891906116d8565b60405180910390fd5b600073ffffffffffffffffffffffffffffffffffffffff168373ffffffffffffffffffffffffffffffffffffffff1603610dc35760006040517f94280d62000000000000000000000000000000000000000000000000000000008152600401610dba91906116d8565b60405180910390fd5b81600160008673ffffffffffffffffffffffffffffffffffffffff1673ffffffffffffffffffffffffffffffffffffffff16815260200190815260200160002060008573ffffffffffffffffffffffffffffffffffffffff1673ffffffffffffffffffffffffffffffffffffffff168152602001908152602001600020819055508015610eb0578273ffffffffffffffffffffffffffffffffffffffff168473ffffffffffffffffffffffffffffffffffffffff167f8c5be1e5ebec7d5bd14f71427d1e84f3dd0314c0f7b2291e5b200ac8c7c3b92584604051610ea791906112ab565b60405180910390a35b50505050565b600073ffffffffffffffffffffffffffffffffffffffff168373ffffffffffffffffffffffffffffffffffffffff1603610f08578060026000828254610efc91906114f2565b92505081905550610fdb565b60008060008573ffffffffffffffffffffffffffffffffffffffff1673ffffffffffffffffffffffffffffffffffffffff16815260200190815260200160002054905081811015610f94578381836040517fe450d38c000000000000000000000000000000000000000000000000000000008152600401610f8b939291906116a1565b60405180910390fd5b8181036000808673ffffffffffffffffffffffffffffffffffffffff1673ffffffffffffffffffffffffffffffffffffffff16815260200190815260200160002081905550505b600073ffffffffffffffffffffffffffffffffffffffff168273ffffffffffffffffffffffffffffffffffffffff16036110245780600260008282540392505081905550611071565b806000808473ffffffffffffffffffffffffffffffffffffffff1673ffffffffffffffffffffffffffffffffffffffff168152602001908152602001600020600082825401925050819055505b8173ffffffffffffffffffffffffffffffffffffffff168373ffffffffffffffffffffffffffffffffffffffff167fddf252ad1be2c89b69c2b068fc378daa952ba7f163c4a11628f55a4df523b3ef836040516110ce91906112ab565b60405180910390a3505050565b600081519050919050565b600082825260208201905092915050565b60005b838110156111155780820151818401526020810190506110fa565b60008484015250505050565b6000601f19601f8301169050919050565b600061113d826110db565b61114781856110e6565b93506111578185602086016110f7565b61116081611121565b840191505092915050565b600060208201905081810360008301526111858184611132565b905092915050565b600080fd5b600073ffffffffffffffffffffffffffffffffffffffff82169050919050565b60006111bd82611192565b9050919050565b6111cd816111b2565b81146111d857600080fd5b50565b6000813590506111ea816111c4565b92915050565b6000819050919050565b611203816111f0565b811461120e57600080fd5b50565b600081359050611220816111fa565b92915050565b6000806040838503121561123d5761123c61118d565b5b600061124b858286016111db565b925050602061125c85828601611211565b9150509250929050565b60008115159050919050565b61127b81611266565b82525050565b60006020820190506112966000830184611272565b92915050565b6112a5816111f0565b82525050565b60006020820190506112c0600083018461129c565b92915050565b6000806000606084860312156112df576112de61118d565b5b60006112ed868287016111db565b93505060206112fe868287016111db565b925050604061130f86828701611211565b9150509250925092565b600060ff82169050919050565b61132f81611319565b82525050565b600060208201905061134a6000830184611326565b92915050565b6000608082019050818103600083015261136a8187611132565b9050818103602083015261137e8186611132565b905061138d604083018561129c565b61139a606083018461129c565b95945050505050565b6000602082840312156113b9576113b861118d565b5b60006113c7848285016111db565b91505092915050565b600060a0820190506113e5600083018861129c565b6113f2602083018761129c565b6113ff604083018661129c565b61140c606083018561129c565b611419608083018461129c565b9695505050505050565b6000806040838503121561143a5761143961118d565b5b6000611448858286016111db565b9250506020611459858286016111db565b9150509250929050565b7f4e487b7100000000000000000000000000000000000000000000000000000000600052602260045260246000fd5b600060028204905060018216806114aa57607f821691505b6020821081036114bd576114bc611463565b5b50919050565b7f4e487b7100000000000000000000000000000000000000000000000000000000600052601160045260246000fd5b60006114fd826111f0565b9150611508836111f0565b92508282019050808211156115205761151f6114c3565b5b92915050565b7f557365722068617665206265656e207265676973747265640000000000000000600082015250565b600061155c6018836110e6565b915061156782611526565b602082019050919050565b6000602082019050818103600083015261158b8161154f565b9050919050565b7f55736572206e6f74207265676973747265640000000000000000000000000000600082015250565b60006115c86012836110e6565b91506115d382611592565b602082019050919050565b600060208201905081810360008301526115f7816115bb565b9050919050565b6000611609826111f0565b9150611614836111f0565b925082820390508181111561162c5761162b6114c3565b5b92915050565b7f4e487b7100000000000000000000000000000000000000000000000000000000600052601260045260246000fd5b600061166c826111f0565b9150611677836111f0565b92508261168757611686611632565b5b828204905092915050565b61169b816111b2565b82525050565b60006060820190506116b66000830186611692565b6116c3602083018561129c565b6116d0604083018461129c565b949350505050565b60006020820190506116ed6000830184611692565b9291505056fea26469706673582212208f49f75a3e059bbf21dec6cdf30fe070060f01933d97eaad4bb78813b24fc21f64736f6c63430008170033",
  "linkReferences": {},
  "deployedLinkReferences": {}
}